:020000040001F9
:10B00000282E0020F5B001000FB1010011B10100A0
:10B010000000000000000000000000000000000030
:10B0200000000000000000000000000013B101005B
:10B03000000000000000000015B1010017B1010080
:10B0400019B1010019B1010005B9010019B10100E0
:10B0500019B10100000000001DB7010019B1010085
:10B0600019B1010019B1010019B1010019B10100B4
:10B0700019B1010019B1010019B1010019B10100A4
:10B0800019B1010069B8010019B1010019B101003D
:10B0900089B8010019B1010091B8010019B101008E
:10B0A00019B1010019B1010000000000000000000A
:10B0B0000000000000000000000000000000000090
:10B0C0000348854600F084FA0048004761FC01000F
:10B0D000282E0020401E00BF00BF00BF00BF00BFE1
:10B0E00000BF00BF00BF00BF00BF00BF00BFF1D165
:10B0F000704700000321094802680A4302600848BB
:10B1000002680A4302600748804707480047FEE795
:10B11000FEE7FEE7FEE7FEE7FEE70000240500404D
:10B1200054050040B1B80100C1B0010030B50B4674
:10B13000014600202022012409E00D46D5409D4211
:10B1400005D31D469540491B254695404019154697
:10B15000521E002DF1DC30BD70B5002425460028BC
:10B1600001DA01244042002901DA01254942FFF7B2
:10B17000DDFFAC4200D04042002C00D0494270BDFF
:10B1800003460B439B0703D009E008C9121F08C000
:10B19000042AFAD203E00B780370401C491C521EAB
:10B1A000F9D27047D2B201E00270401C491EFBD2B6
:10B1B00070470022F6E710B513460A4604461946C2
:10B1C000FFF7F0FF204610BD30B5044600200346CF
:10B1D00000E05B1C934203D2E05CCD5C401BF8D0E6
:10B1E00030BDF0B51FB40646002082B005464024AD
:10B1F000019100901BE0019922460F46304600F075
:10B2000009FA049A059B801A994110D310461946F1
:10B21000224600F0EFF9361A8F41019722460120AD
:10B220000021009F00F0E6F938184D4100902046BB
:10B23000641E0028DFDC019B00982946324607B0D7
:10B24000F0BD0000F0B507460846584087B0C00F73
:10B25000049048000E46590040084908BC1A88412D
:10B2600005D2384631461E4617460B460246580060
:10B27000400810434CD0300D039040055900400D5C
:10B28000490D0590401A0290402872DA18030121F6
:10B29000000B09050843019004980092002805D08E
:10B2A0000199524200208841009201900298402169
:10B2B0000A1A0199009800F09DF905460C466B4664
:10B2C00007CB00F0B8F9C0197141039A0E0D0023A5
:10B2D000D71756401A467A40164344D0049A002A9B
:10B2E0002DD0029A012A039A15DC1205C01A914149
:10B2F00001263605001C7141D20F059ED20700932E
:10B30000019202962A46234600F0B5F907B0F0BD37
:10B3100038463146FAE71605224A0F46B218C01AD7
:10B32000B74101210905001C4F4100187F4111461A
:10B3300018187941E20F10436D19644113E0E207D8
:10B340006D0815436408C2071443039A01261205C9
:10B35000C01A91413605001C7141CE0740083043A8
:10B360004908C01851412A46234600F077F9CDE735
:10B37000FFE7049801224000C117121A00238B41F5
:10B3800004983146C417381AA141EEE730B40124BD
:10B39000E407634030BC55E730B40124E407614062
:10B3A00030BC4FE70000E0FFF0B51FB488B00B9948
:10B3B0000998002448400999C00F4900490809919B
:10B3C000C0070B990090490049080B91099908980A
:10B3D000A64608431CD00B990A98084318D0099830
:10B3E00001244000420D4800410D09982405000346
:10B3F000000B204309900B980003000B20430B9097
:10B4000050181C494018002201901446104605E0CF
:10B41000002001460DB0F0BD032801DA034600E02C
:10B4200003239C46C11A0AAE0AE05F0008ADED5B3B
:10B430004F00F75B7D430027AA187C41491C5B1E27
:10B440006145F2DD410004AB5A522104120C0A435B
:10B45000240C401C0828DFDB0198029000997046FC
:10B4600001910090059B049A0799069800F003F952
:10B47000D0E700000DFCFFFFF0B50C465C4085B046
:10B48000E40FE40703944C00002664085900944636
:10B49000490802460296224321D062460A431ED042
:10B4A0006200570D4A000E032303550D0124024686
:10B4B0002C492405781B1B0B360B401823432643CD
:10B4C000614600901C46501AB44103D30098401CBA
:10B4D000009002E0921800985B41002803DA0020F7
:10B4E000014605B0F0BD002001210905074686464A
:10B4F00011E064461D46141BB54106D36546521B38
:10B50000B341744607430C43A646CD07400849089B
:10B51000284392185B4105460D43EAD11046184373
:10B5200013D06046194650407140084306D060462B
:10B53000101AB34106D20122002306E000220123A3
:10B54000DB0702E00122D243531000987446010544
:10B55000381C6141029C039D0019694100F07EF88E
:10B56000BFE70000FD0300004A0009030123090BA7
:10B570001B0519430A4B10B5520D9A4202DA0020FE
:10B58000014610BD064B34339A4203DC9A1A00F090
:10B5900041F810BD034BD21800F02CF810BD00008C
:10B5A000FF030000CDFBFFFF10B5002904DB0124E1
:10B5B000E40740428C412146002B04DB1C4601235A
:10B5C000DB075242A341994200D1904210BD0000D6
:10B5D000064C0125064E05E0E36807CC2B430C3CE6
:10B5E00098471034B442F7D3FFF76EFDA41A020057
:10B5F000C41A020010B5202A04DB0146203A91400B
:10B60000002010BD914020239C1A0346E3401943BB
:10B61000904010BD10B5202A04DB0846203AD040E7
:10B62000002110BD0B46D340D0402024A21A9140E7
:10B630000843194610BD10B5202A06DBCB17084673
:10B64000203A1041C1170B4306E00B461341D0408E
:10B650002024A21A91400843194610BD10B5002BB2
:10B6600008DA0024401C614192185B411A4301D161
:10B670004008400010BDF0B51FB482B005460C0074
:10B6800003D0084600F05CF902E000F059F92030E0
:10B690000246009021462846FFF7ACFF049B059A1E
:10B6A00004460F4618431143084314D0184610436C
:10B6B0001BD0009840210A1A18460599FFF7AAFFE7
:10B6C00005460E46009A05990498FFF793FF084334
:10B6D00005D0012004E02046394607B0F0BD002027
:10B6E000C11705430E432C43374300990E98630559
:10B6F000401A7905E40A00220C43FD0A0A3002D5FB
:10B7000000200146E9E70105101969410C9C0D9DD7
:10B7100000196941FFF7A2FFDFE70000F8B5002438
:10B72000FF250135012627460094284604F02CFD0C
:10B73000002808D034484068304204D03348002103
:10B740002818344301602D1D76007F1CADB2042FF4
:10B75000EBD3FF207D3004F017FD002807D02C48E4
:10B7600000210160400704432A48006900902A4FE5
:10B77000200712D00126002526420AD02748AA0019
:10B78000111808690969C004C00E8903BA58890FE5
:10B79000904776006D1C042DEED3002C30DA002487
:10B7A0001D4E0021301940304156491C25D00778E4
:10B7B000BD06AD0E284601F03FFC80003658002E35
:10B7C0001BD0BF090121A940154AA80080180068B4
:10B7D000009A8003800F114202D0022802D00CE0B0
:10B7E00003280AD1032F05D102280AD002212846B6
:10B7F00004F0BAFC39462846B047641C042CCFD369
:10B80000F8BD0321F3E70000006300400060004042
:10B810007C61004000050050E023002000650040EE
:10B82000000700508307FF22DB0E9A408907090EAC
:10B83000994000280BDA0007000F083883080848F1
:10B840009B001818C36993430B43C3617047830877
:10B8500004489B001B181868904308431860704701
:10B8600000ED00E000E400E010B5064900200860AB
:10B8700048608860C860034940390860486005F046
:10B88000ADFB10BD4011014010B505F03DFB10BDF2
:10B8900010B506484068002805D08047002801D030
:10B8A00000F01AFD10BD04F02DF810BD3C1E002064
:10B8B00010B504F085F8002805D00E490C48486002
:10B8C000C8130D4988610D48018CC9B201290ED1F8
:10B8D000818C09070BD1018D0906090F042906D1B6
:10B8E000808D0006000F02D105490120886010BD3F
:10B8F000DFFF07C000050040006C0040C00F00F0F3
:10B900000006004010B505F0B5FC10BD0FB410B531
:10B9100003A9044B044A029800F0F2F810BC08BCDA
:10B9200004B018476DF10100381E002010B5024B1D
:10B93000024A00F0E5F810BD6DF10100381E00204C
:10B940002021020C01D010211046020A01D010461D
:10B950000839020901D01046091F820801D010469B
:10B96000891E420801D0881E7047081A704730B4FB
:10B970007446641E2578641CAB4200D21D46635D8C
:10B980005B00E31830BC184702E008C8121F08C16A
:10B99000002AFAD170477047002001E001C1121F50
:10B9A000002AFBD170470000F0B51FB484B007989F
:10B9B0000699020D014314D04A484B4910184843D8
:10B9C00005140F9801280E981CD0281A401C00243A
:10B9D000464E4749009401910290002814DA4742EC
:10B9E00027E00F98012443A3012808D000210498E0
:10B9F0000F9A84600360C260416009B0F0BD0E9888
:10BA0000C143F4E74042E2E7074612E0F80707D0F7
:10BA10002246334601990098FFF7C6FC0191009039
:10BA20002246334610461946FFF7BEFC04460E4632
:10BA30007F10002FEAD10298019B0028009A0799F5
:10BA4000069802DAFFF7B0FC01E0FFF715FD0446A7
:10BA50000E460022284BFFF7A7FD03D80020C04365
:10BA6000014607E00022254B20463146FFF7EAFB5E
:10BA7000FFF77AFD102409E0002C0ADB0A220023DC
:10BA8000FFF7AFFB059B30321A55641E02460A438E
:10BA9000F2D11122641C059B121B1C190F9B012B58
:10BAA00003D0012308430ED10AE0084304D011203B
:10BAB0000E9000200F9084E70E98151A6D1E0BE073
:10BAC0000E98824202DD00236D1C03E0824201DAFF
:10BAD00000236D1E002BEED004980F998260C16088
:10BAE00030C08AE701FCFFFF104D00000000244039
:10BAF0000000F03F300000000000F0430000E03F95
:10BB0000FFB597B00646002518E2252877D1002416
:10BB10002746FD49049400E00443761C3278012056
:10BB2000203A90400842F7D130782A280ED00222DD
:10BB3000307801463039092916D804990A23594327
:10BB4000303940181443761C0490F1E7189802C865
:10BB500004911890002904DA01204003044348426C
:10BB6000049002200443761C30782E2814D104203F
:10BB700004437078761C2A2809D11898761C80C84E
:10BB8000189009E00A214F43303FC719761C3078DE
:10BB9000014630390929F5D930786C2810D006DCF7
:10BBA0004C281AD068280ED06A2817D104E07428CF
:10BBB00013D07A2812D110E00120400504430CE094
:10BBC0000121090501E0032109050C437178814237
:10BBD00003D1012000052418761C761C30781190C2
:10BBE00066280BD013DC58287DD009DC00287BD0D8
:10BBF0004528F6D04628F4D047281AD1A5E118E008
:10BC0000632835D0642870D0652812D19DE1702852
:10BC10006CD008DC6728F1D069287BD06E280DD065
:10BC20006F2806D1BAE073282ED0752871D07828F5
:10BC300059D01A9A199990476D1C7EE16002400F05
:10BC4000022809D003280DD00428189801680DD0C7
:10BC50000D60001D189070E11898EA1701680D60DA
:10BC60004A60F6E7189801680D80F2E70D70F0E77A
:10BC700018986A4601781172001D189000205072C1
:10BC800002A80090012005E0189802C81890002032
:10BC90000091C04361070DD5002101E00199491CC5
:10BCA0000191B94212DA8142F8DB009A515C002915
:10BCB000F4D10BE0002101E00199491C019181427E
:10BCC000FADB019A0099895C0029F5D10199049861
:10BCD0001A9B471A21463846199A00F097FA01999B
:10BCE000401945180BE04FE02CE113E04EE00098BE
:10BCF00000990078491C00911A9A19999047019867
:10BD0000401E0190401CF2D1214638461A9B199AD8
:10BD100010E137E00A200021009001916002410FFC
:10BD2000022907D0189A01CA1892C217944603290B
:10BD300008D00AE01898C01DC108C90005C91891AB
:10BD4000944607E000B2C2179446042902D140B2DB
:10BD5000C1178C4600226146944506DA0A46002146
:10BD6000404291418C462D2102E0210504D52B2132
:10BD70006A461173012103E0E10701D02021F7E7B2
:10BD8000029155E00A200AE0102008E010200090FF
:10BD90000021042004430191082703E0082000212A
:10BDA000019100906002410F022907D0189A01CA40
:10BDB000189200229446032908D008E01898C01D64
:10BDC000C108C90005C91891944603E080B204294E
:10BDD00000D1C0B200210291210729D51199702903
:10BDE00006D0009A1021019B4A401A4305D00EE06C
:10BDF00040216A461173012108E06146014306D0E3
:10BE000030216A4611731199517302210291009AEF
:10BE10000821019B4A401A430AD16146014301D1DE
:10BE2000610705D530216A46117301217F1E0291F9
:10BE30001199582904D035A10E910DA90D910DE04D
:10BE400037A1F9E76146019B009AFFF7CAF90E9BFB
:10BE50008C469B5C0D9A521E0D92137061460143F5
:10BE6000F0D10D9805A9081A20300190600703D57C
:10BE700001200004844300E001270198874201DD8E
:10BE8000381A00E000200199009041180298091822
:10BE90000498401A0490E00306D421461A9B199A8C
:10BEA000049800F0B3F94519002706E003A81A9A90
:10BEB000C05D199990476D1C7F1C02988742F5DB85
:10BEC000E0030CD521461A9B199A049800F09EF9BC
:10BED000451904E01A9A3020199990476D1C009971
:10BEE000481E00900029F5DC08E00D980D990078B7
:10BEF000491C0D911A9A199990476D1C0199481E79
:10BF000001900029F1DC63E109280100303132336E
:10BF10003435363738396162636465660000000085
:10BF2000303132333435363738394142434445466F
:10BF30000000000000F05AF94519761C30780028FE
:10BF400000D0E2E528461BB0F0BD600700D406270C
:10BF50001898C01DC108C90048680A680831C30F95
:10BF6000DB071891190001D09CA108E0210501D53B
:10BF70009BA104E0E10701D09AA100E09AA143004F
:10BF800011985B08109165280CD006DC452809D073
:10BF900046281DD0472841D141E0662818D067289F
:10BFA0003CD13CE00021112F01DB112000E0781C86
:10BFB0000191009008A911A8FFF7F6FC13990591CB
:10BFC0000021119A15927F1C12980197009150E060
:10BFD0000120C00703900120019008A9009711A833
:10BFE000FFF7E2FC139A149905920022119B00922C
:10BFF00012981593059A0192002901D0104602E08B
:10C00000791C40180190381A01D5019804E040428B
:10C01000401E0090781C0190C01B029043E0012F4D
:10C0200000DA01270021112F01DD112000E0384640
:10C030000191009008A911A8FFF7B6FC139905918A
:10C04000119A0021129815920091019721070CD4A2
:10C050000599B94201DB019900E00191012904DD54
:10C06000159A491E515C302906D0B84201DA011DEB
:10C0700005DA0121029115E00199491EEDE700283A
:10C0800005DC0099411800910199091A03E0019A11
:10C09000411C914200DD01910099401A401C029020
:10C0A0000120C0070390200706D40299019881421D
:10C0B00002DB0020C043029000206946C87707AF2A
:10C0C000012103980337C907884224D00220119028
:10C0D0002B201290039800280CDA404203902D2068
:10C0E000129007E00A210398FFF720F830317F1EF5
:10C0F000039039701199481E11900029F2DC0398C1
:10C100000028EFD1791E129808703078202108405D
:10C110004530BF1E387006A8C01BC01D0390109884
:10C120000078002800D00120019941180298C0171A
:10C130000918039809180498401A401E0490E00357
:10C1400006D421461A9B199A049800F05FF8451905
:10C1500010980078002803D01A9A199990476D1CFE
:10C16000E00324D521461A9B199A049800F04EF852
:10C1700045191CE00098002807DB009905988842C3
:10C1800003DD1598405C199901E0199930201A9A3D
:10C19000904700986D1C401C00900298401E029031
:10C1A000002804D11A9A2E20199990476D1C0199E4
:10C1B000481E01900029DDDC05E038781A9A7F1CC2
:10C1C000199990476D1C0399481E03900029F4DCCF
:10C1D00021461A9B199A0498ACE600002D00000035
:10C1E0002B0000002000000000000000F8B504460D
:10C1F00000251E461746880404D405E03946202051
:10C20000B0476D1C641EF9D52846F8BDFFB504463D
:10C21000002581B01E46C80301D5302700E0202745
:10C22000880404D505E038460399B0476D1C641EA8
:10C23000F9D5284605B0F0BD70B500238D880C688F
:10C240000DE0E6187678E15C864206D1E018801CA5
:10C25000491E10609180002070BD5B185B1C9D42E0
:10C26000EFD8052070BD10B501220221002000F09A
:10C2700061FD002801D0072812D1072202210120E8
:10C2800000F058FD002801D0072809D100210A221A
:10C29000084600F04FFD002801D0072800D10020FB
:10C2A00010BD00000448426840210B469343836060
:10C2B0000A40C2607047000000050050BFF34F8F76
:10C2C00004490348C860BFF34F8F00BFFDE700007B
:10C2D0000400FA0500ED00E00EB500210290009187
:10C2E0006A4601910148FFF7E9FF000001400000A4
:10C2F000F8B5074606480D4604681646097805A0B5
:10C3000003F0A4FC324629463846A047F8BD000099
:10C310009C2300205B444D5D3A204E6F7469667922
:10C32000696E67206170706C69636174696F6E20FB
:10C330006F66206576656E74203078253032580D32
:10C340000A00000010B58268C368934203D002F06F
:10C350009FFE002010BD052010BD002906D0002A38
:10C3600002D0531E134203D0092070470E2070479D
:10C370000160838000218160C1600846704710B56C
:10C380008268C3689A1A83889A4203D802F08AFEA8
:10C39000002010BD042010BD38B50C46A2680C2347
:10C3A0005A43064B09789D58054A126A0092024684
:10C3B000204608302369A84738BD0000102500201A
:10C3C000EC1D002010B5064914230A785A43511871
:10C3D000091DFFF7E1FF042004F012FC10BD00006E
:10C3E00044240020094B9B68002B07D0002A07D06B
:10C3F000002805D00068037C002B03D0082070477C
:10C40000072070474174426100207047101E0020D1
:10C41000FFB59007002581B014460E46002832D1A2
:10C420001B4F002C31D004F02BFB049878610320C3
:10C43000387033461821224600204B43BC60183424
:10C44000C10089180D704D708E704C601C19401C15
:10C450000328F5DBFD607D7001240E48BD702405C6
:10C46000046003211420FFF7DDF90B4804600B4C36
:10C470000198A06003211120FFF7D4F960683861AA
:10C48000002005B0F0BD0720FBE7BD60FBE7000022
:10C49000101E002080E200E000E100E000150140F5
:10C4A000FEB50D461B4917468968044600292AD067
:10C4B000002C28D0052D01D20720FEBD6069002880
:10C4C00021D0607C012820D0002604F071FFC0003C
:10C4D0001049019089684018694604F093FF0028CC
:10C4E00015D0012101700C49446049680830E2C050
:10C4F000084901988968411868460078487004F036
:10C5000045FD0020FEBD0820FEBD2E46DDE70420CF
:10C51000FEBD0000101E002000150140F8B5134DAF
:10C520000446A96800291CD0002C1AD06069002894
:10C5300017D00026267404F03BFFC700A8686946A0
:10C54000381804F05FFF00280DD00221017044600C
:10C55000A868391868460078487004F017FD30461E
:10C56000F8BD0820F8BD0420F8BD0000101E002012
:10C5700070B506460D4608A003F068FB002404E0F1
:10C58000315D06A003F062FB641CAC42F8D302A04C
:10C5900003F05CFB70BD00000D0A00003078253010
:10C5A0003258200070B50446224888B01E460D005F
:10C5B00042601CD0A888296882B21F48FFF7CDFED0
:10C5C000002815D1A889A96882B21B481030FFF74E
:10C5D000C4FE00280CD1202218496846FEF7D0FD81
:10C5E000A06806902079002804D0012103E00720EC
:10C5F00008B070BD00216846017506776079002893
:10C6000000D00E2069464875E0780290A07803902B
:10C6100020780190607800900949684603F050FC4A
:10C620000028E5D103F0D6FC02480121801C03F06C
:10C63000ABFCDDE7E41D0020C023002070140200E5
:10C64000C511020010B50446064801214470401C83
:10C6500003F01AFD112803D121460348FFF78FFE8E
:10C6600010BD0000E41D0020D023002038B5044692
:10C6700008780D4600280CD0012822D0022807D1C6
:10C68000697821A003F0E2FA697829A003F0DEFAC4
:10C6900038BD2CA003F0DAFA34A003F0D7FA204614
:10C6A00000F0C0F8002801D0FFF716FE38A003F014
:10C6B000CDFA204600F0AAF80028E9D0FFF70CFEDA
:10C6C00038BD3F4C3F4A206911783F4D52780028D1
:10C6D00010D07D23DB00984212D36868E06000929E
:10C6E0000B46024639A0A168FFF710F90020A060B0
:10C6F000E06006E041A0FFF709F96868A0602069E2
:10C70000401C206138BD00005B4150504C5D3A2018
:10C7100042617474657279204C6576656C2052654F
:10C7200061642061732025642025250D0A00000026
:10C7300042617474657279203D2025642025250DA1
:10C740000A0000005B4150504C5D3A204261747415
:10C7500065727920536572766963652064697363D5
:10C760006F76657265642E200D0A00005B415050A3
:10C770004C5D3A2052656164696E67206261747431
:10C78000657279206C6576656C2E200D0A000000BC
:10C790005B4150504C5D3A20456E61626C696E673A
:10C7A0002042617474657279204C6576656C204E08
:10C7B0006F74696669636174696F6E2E200D0A007B
:10C7C000801D0020541E002000B500400D0A636F3C
:10C7D000756E74657253746172743A256420636F68
:10C7E000756E74657253746F703A256420456E647B
:10C7F0003A25782025780D0A000000000D0A4669C8
:10C800007273743A25782025780D0A0010B5002837
:10C8100005D041880088012200F0BAFB10BD0E202F
:10C8200010BD000010B50A4B14221968094C4A4388
:10C83000491C4907490F19601219818891800088A5
:10C8400010800020907004F009FC002010BD000052
:10C85000B01D0020CC20002008B5002815D00029EC
:10C8600013D001236A469370094B1380094A9060E4
:10C870000022D243028000224280828009688160C7
:10C880000549684600F044F808BD0E2008BD0000C8
:10C890000F180000B01D0020B5D5010038B50028E4
:10C8A0001FD000291DD00A88102A1BD0362A1CD080
:10C8B000382A27D0392A14D18A8983889A4210D1FC
:10C8C00001236A4613708B7C5370104B00228C1826
:10C8D000A47C9C54521CD2B2142AF8D382686946B4
:10C8E000904738BD8988018038BD8A8983880C319A
:10C8F0009A4207D102236A4613708979517082687F
:10C900006946904704F0AAFB38BD0000541E002081
:10C9100030B5002815D0002913D00E4A1378002B0B
:10C9200011D09368022B10D011D20B4CDD002C19C2
:10C9300005882580408860805B1C616000209360D2
:10C9400030BD0E2030BD082030BD062030BD042093
:10C9500030BD0000BC1D00206C21002000210348D8
:10C96000012281600270416008467047BC1D0020B2
:10C9700070B5002815D0002913D0244A1278002A57
:10C980000FD00A88302A17D00CDC04464034102A15
:10C9900010D0112A05D17C21FEF70BFC0020C043EA
:10C9A000A08670BD322A2DD0332AFAD1091D03F09A
:10C9B00037FD70BD8888F3E70546C888091D002843
:10C9C00007D00021284601F003FB284603F07EFD36
:10C9D00070BD2C466034207E3A22504340194A896B
:10C9E00002808A894280CA89C280098A01812846D8
:10C9F00000F02AFB0100EBD000206076284601F011
:10CA00001DFB70BD091D03F0A3FC70BDBC1D002003
:10CA100070B500280DD0174A1378002B0BD09368FF
:10CA2000002B08D004466034637E002B05D0112013
:10CA300070BD0E2070BD082070BD002353600246FB
:10CA4000403291860546A3760B48237601882980DB
:10CA5000408868801646928E89B2084803F0F6F83E
:10CA6000B08E2A46012190DF0028E5D101206076B2
:10CA7000002070BDBC1D00206C2100202816020083
:10CA800010B5044601F002FB21460A48FFF770FF8B
:10CA9000084821467C3000F03BF8064821468830A3
:10CAA000FFF7FCFE204600F0C3F8204603F084FBAD
:10CAB00010BD0000E81F002010B5002805D04188F7
:10CAC0000088012200F08EFA10BD0E2010BD00007B
:10CAD00008B5002814D0002912D001236A469370AB
:10CAE000084B1380084A9060096881600021C9439F
:10CAF00001800021418005496846FFF709FF08BD14
:10CB00000E2008BD0D180000C81D002019D5010019
:10CB100008B500281DD000291BD00A88102A19D07A
:10CB2000382A1CD0392A14D18A8983889A4210D194
:10CB300002226B461A708A7CD3074A1C002B0CD049
:10CB4000D17C927C090211436A4651808268694611
:10CB5000904708BD8988018008BDC97CF4E704F0CE
:10CB6000BFFA08BD00B585B0002348221749092047
:10CB700004F096F8002801D0FFF7AEFB6A460021CA
:10CB8000012004F075F8002801D0FFF7A5FB10483C
:10CB900004F02EF8002801D0FFF79EFB684604F051
:10CBA0005DF8002801D0FFF797FB0A4804F04CF825
:10CBB000002801D0FFF790FB074804F089F800280F
:10CBC00001D0FFF789FB05B000BD0000681E002002
:10CBD000681B002081CA0100C50E02007CB5134EFF
:10CBE00000250C463060002918D06946002000F06E
:10CBF00065F8002819D101A9012000F05FF800288C
:10CC000013D1684601790020002901D0022004E0F8
:10CC100069460978002900D00B2020707068002830
:10CC200002D1FFF720FB054628467CBDA81D002049
:10CC300010B51C4C0188606810290DD011290AD14B
:10CC4000401E606007D1FFF70EFB002803D021686B
:10CC5000002900D0884710BD00281ED100210122E4
:10CC6000084600F067F8002801D0072811D10722F4
:10CC70000221012000F05EF8002801D0072808D129
:10CC800004220221002000F055F8002805D00728D2
:10CC900003D02168002900D088476068401C60608C
:10CCA00010BD0000A81D002010B5032000F06EF993
:10CCB000002801D0062800D1002010BD00200870F7
:10CCC0007047000070B51A4C042815D007281BD0F7
:10CCD0000A2810D1002000F02FF8002801D0FFF71B
:10CCE000FBFAFFF7E1FF002801D0FFF7F5FA3CDF80
:10CCF00007E0FFF7F1FA70BD1321E08876DF08281E
:10CD0000F9D00028F5D170BD6078012501280AD13D
:10CD1000A078002807D1A57087DF002805D0082853
:10CD200001D0FFF7D9FAA57070BD03F003FFFAE751
:10CD3000801D00200720704710B5054A0146127A71
:10CD40000020D20702D0084600F02AF810BD0000EB
:10CD5000981D002010B50C4A51609060C00705D0A6
:10CD60000B480A4981600022C2608161094A0021A2
:10CD70000948FFF737FB002805D10748074A01217A
:10CD8000001DFFF72FFB10BD981D0020E0000001E3
:10CD90000005005059FA010034140200A5C2010038
:10CDA000FEB5764D764AEB6802939A436B68009322
:10CDB0009C0006461B190020019380210746714CF8
:10CDC0003300FEF7D4FD180D1515374755677C87DE
:10CDD0007F878FD89B9B9B9B9BC4CACCD2D8D814EF
:10CDE0006749029A80319143A160E7602F70FEBDD0
:10CDF000A260E7606068624A80325040000609D550
:10CE0000A160E760022E02D1E120C0000AE07D208F
:10CE1000400107E0E160A760022E01D1C82001E0D7
:10CE2000FF2091302E706421FEF780F90099414374
:10CE300000223FE0A260E7606068514A80325040C3
:10CE4000000604D5A160E76019204001EAE7E1602F
:10CE5000A760E3E7A260E7606068494A803250401B
:10CE6000000602D5A160E760D1E7E160A760D7E7DF
:10CE7000A260E7606068424A80325040000602D5F6
:10CE8000A160E76001E0E160A7602E7000984100BA
:10CE900000220FE0A260E7606068394A80325040AB
:10CEA000000602D5A160E76001E0E160A7602E7096
:10CEB0000099002234480068FFF7F2FAFEBDA26034
:10CEC000E76018E06168202002468A43A2600140C2
:10CED000E1600EE0606820210A468243A2600840BB
:10CEE000E060E5E7606820210A468243A2600840CE
:10CEF000E0600199CCE7E160A7602CE0224840683F
:10CF0000FFF70CFB11218A1B01D0002807D01C4A17
:10CF1000E96880321140A160E760EF60FEBD40210A
:10CF2000E960012A0CD91046C82148436421FEF764
:10CF3000FDF869680022414313484068FFF7B0FAE2
:10CF40000F4AE96880321140E160A760FEBD0C49DC
:10CF50008031A160E7602E70FEBD094AAFE7084945
:10CF60006031A160E7602021C5E705492039A16053
:10CF7000E760A021BFE702498031BCE7981D00208F
:10CF800060000001000500503414020006207047C4
:10CF900070B51446054602460E460F4802F056FE8E
:10CFA0000E49142208680E4B4243401C4007400FB4
:10CFB0000860D21856810220D081101D1061002017
:10CFC0009081012010721471210A517115809070A6
:10CFD00004F044F8002070BD84150200B01D00204C
:10CFE000CC20002070B51446054602460E460F4878
:10CFF00002F02CFE0E49142208680E4B4243401CDE
:10D000004007400F0860D21856810220D081101DC1
:10D01000106100209081012010721471210A517159
:10D020001580907004F05CF8002070BD301702008D
:10D03000C81D00200422002002490918202008569B
:10D0400070470000E023002008B5014660310A4621
:10D05000097E3A235943D27D0918002A08D0521E6E
:10D06000D2B20C235A435218528A6B46521C01E02A
:10D07000CA886B461A80098959804030808E1946CB
:10D0800092DF08BDF8B53E481422017851430C18D0
:10D09000E0680C2148433A492769CC31401805899A
:10D0A00041890091241D466803F038FB014638464B
:10D0B000FEF73CF8002932D000200099A2884D43A9
:10D0C0006188AE198918CD1900222E4900280A61FD
:10D0D00009D003F023FB6188884222D0B54202D1F7
:10D0E000A08800281DD0A06802281AD003F016FBE3
:10D0F000A188CA1901461046FEF718F8214C880885
:10D10000E06003F00BFB01462846FEF70FF800290C
:10D1100011D00020B5422FD000280ED02CE00120E5
:10D12000CBE703F0FBFA01463846FDF7FFFF154950
:10D130004861032021E00120ECE7ADB2B7B203F073
:10D14000EDFA01463846FDF7F1FF064603F0E6FA30
:10D1500001462846FDF7EAFF864201D1781B09E027
:10D1600003F0DCFA064603F0D9FA01462846FDF73B
:10D17000DDFF701A80082061022003F041FDF8BD38
:10D1800044240020EC1D002010B50748142201782B
:10D19000514308180079042802D000F059F810BD56
:10D1A000012003F02DFD10BD4424002010B50B48D4
:10D1B0001422017851430818094AC1881162007984
:10D1C000012806D0032801D0042801D1FFF75AFF17
:10D1D00010BD012003F014FD10BD00004424002008
:10D1E000EC1D002014225043054A002180180171D3
:10D1F000C18001220161C26041610181704700006C
:10D2000044240020F8B5104C069E65780A2D19D0EC
:10D2100027787D190A2D00D30A3D14277D432D1947
:10D2200028716A6103C92961E860EB802E8160780A
:10D23000401C607005480078002801D1FFF7B6FF58
:10D240000020F8BD0420F8BD44240020EC1D00207F
:10D2500010B50D4C14212078484301190020091DF8
:10D26000FFF79AF82078FFF7BDFF6078401E6070E6
:10D270002078401CC0B220700A2801D10020207004
:10D28000002003F0BDFC10BD44240020F8B5234865
:10D29000C16800293ED00E6821494C680769C078F2
:10D2A000E11B0D022D0AED1C002814D101201D4A9E
:10D2B000000450601B4A403A50601B49400008601F
:10D2C0001A4908601A49012008602F20FDF702FF63
:10D2D00012490120C870B54200D23546E819000253
:10D2E0000F4B000A403318600D4A5168001B091BA0
:10D2F0000902090A0002000AC91C814209D95068C2
:10D3000018602F20FDF7E6FE012007494004803910
:10D310000860F8BD03F0B4FBF8BD0000101E00204B
:10D32000001501404013014080E200E000E100E010
:10D330000010014070B504460DA002F087FC2246A3
:10D340000121184800F062F8050005D016A002F08F
:10D350007DFC0425284670BD1FA0216802F076FCE4
:10D3600020680C225043284A022180188172F1E77C
:10D370005B444D5D3A205265717565737420746F1E
:10D3800020616C6C6F636174696F6E20636F6E6E89
:10D39000656374696F6E20696E7374616E63650D89
:10D3A0000A000000FFFF00005B444D5D3A204E6F15
:10D3B000206672656520636F6E6E656374696F6E5B
:10D3C00020696E7374616E63657320617661696C48
:10D3D00061626C650D0A00005B444D5D3A5B25306F
:10D3E00032585D3A20436F6E6E656374696F6E20CC
:10D3F000496E7374616E636520416C6C6F63617418
:10D4000065642E0D0A0000009023002070B5094BC2
:10D4100004469E7A082000250E4207D00648844222
:10D4200002D01889A04202D10020156070BD0520ED
:10D4300070BD000090230020FFFF000010B50446DF
:10D44000014608A002F002FC0C20444312480121CE
:10D4500020188172891E0181FF21C1720721FDF709
:10D46000A8FE10BD5B444D5D3A20496E6974696148
:10D470006C697A696E6720436F6E6E656374696F5D
:10D480006E20496E7374616E636520307825303884
:10D49000582E0D0A000000009023002010B5134CF8
:10D4A000207900071FD46069401C6061E068002893
:10D4B00001D0042004E002F0A7FA002803D00220E3
:10D4C00003F0F6FC10BD2069002809D06068C10790
:10D4D00001D00320F4E70121084360600020EFE75A
:10D4E000FFF752FE10BD03F0D7FC10BDEC1D00206D
:10D4F00010B5084841680A0708D48A0702D50122F6
:10D5000011434160022003F0D3FC10BD03F0C4FCC2
:10D5100010BD0000EC1D0020F8B50178002928D1CD
:10D520008188144A914224D18179012921D1124C58
:10D530004188A268114D11800021037A0EE00C266B
:10D540004E433618F689AE4207D10C2359430818CA
:10D55000018B5180C08A908002E0491C8B42EED83A
:10D5600007A002F073FB012069460870A06882687A
:10D570009047F8BD0D180000C81D0020372A000094
:10D580005B4852535F435D3A204865617274205294
:10D59000617465205365727669636520646973639D
:10D5A0006F766572656420617420706565722E0DFA
:10D5B0000A000000F8B50178002906D18188174AD1
:10D5C000914202D18179012903D015A002F03EFBDE
:10D5D000F8BD214C4188A268204D11800021037ABA
:10D5E0000FE00C264E433618F689AE4207D10C23C5
:10D5F00059430818018B5180C08A908003E0491C70
:10D60000C9B28B42EDD816A002F020FB002069467B
:10D610000870A06882689047F8BD00000F180000ED
:10D620005B4241535F435D3A204261747465727995
:10D63000205365727669636520646973636F7665EC
:10D640007279206661696C757265206174207065FD
:10D6500065722E200D0A0000B01D0020192A00005E
:10D660005B4241535F435D3A204261747465727955
:10D67000205365727669636520646973636F7665AC
:10D6800072656420617420706565722E0D0A000059
:10D69000F3B5064605466036307E3A2148434719C1
:10D6A000F47D0C206043C1193A79601C0A3183B0C3
:10D6B000904227D101AB0022284602F05FF90028F2
:10D6C00023D010E0401EA04201D1002003E00C2036
:10D6D0006043C01916300246009001AB284602F0A4
:10D6E0004DF9002808D00021049840350170A88E1B
:10D6F00001A993DF05B0F0BDF07D0099401C641CCA
:10D70000F075E4B23879A042DCD8049801210170A8
:10D710000020EFE7FEB504460F4635A002F096FA6A
:10D72000A1786A463B4802F06BFF05005BD1627846
:10D730000C20394950434018807A40062AD4022FE1
:10D7400028D0A178012F2BD0344802F07FFA344E34
:10D75000A0781821484330490023D03941181822B5
:10D760006846B047050020D0022F3AD020780C211F
:10D77000484329490C314018807A2A4980000A58C8
:10D78000214668469047050031D0014626A002F0A8
:10D790005DFA28E0A17832A002F058FA404ED7E7AF
:10D7A00040A002F053FA4E4ED2E7022F1FD061780C
:10D7B0000C2041431848BF220818817A18231140D1
:10D7C000817260781C2148431349283941181C2272
:10D7D0006846B0470200C9D0A17842A002F036FAEC
:10D7E000C4E7002D03D029464EA002F02FFAFEBD5B
:10D7F0005B444D5D3A202D2D3E206465766963655E
:10D800005F636F6E746578745F73746F72650D0A11
:10D8100000000000DC1D0020902300208819020079
:10D820001D0E0200401402005B444D5D3A2046612B
:10D83000696C656420746F2073746F726520736502
:10D84000727669636520636F6E746578742C2072DC
:10D850006561736F6E20253038580D0A0000000096
:10D860005B444D5D3A5B444920253032585D3A5B5C
:10D87000434920253032585D3A202D3E20557064B2
:10D880006174696E6720626F6E64696E6720696E8D
:10D89000666F726D6174696F6E2E0D0A0000000074
:10D8A000B50902005B444D5D3A5B444920253032A6
:10D8B000585D3A5B434920253032585D3A202D3E71
:10D8C0002053746F72696E6720626F6E64696E6751
:10D8D00020696E666F726D6174696F6E2E0D0A003D
:10D8E000D90802005B444D5D3A5B307825303258F0
:10D8F0005D3A4661696C656420746F2073746F7261
:10D900006520626F6E6420696E666F726D61746906
:10D910006F6E2C20726561736F6E20307825303801
:10D92000580D0A005B444D5D3A204661696C6564A0
:10D9300020746F2073746F72652064657669636507
:10D9400020636F6E746578742C20726561736F6EDE
:10D9500020253038580D0A00F3B51E4F1E4E83B0F7
:10D9600000241820604385192A7C21461BA002F060
:10D970006DF9287DAA7D697D6B4607C3EB7CAA7C87
:10D98000697C20A002F062F9E87DFF2805D0641CC4
:10D99000072CE6D3384605B0F0BD0498007802287D
:10D9A0000AD0182060438019FD21C175072210306C
:10D9B0000499FDF7E5FB04E0182060438019FE217F
:10D9C000C17503980027047021461EA002F03EF99D
:10D9D000E0E7000043800000C02200205B444D5D72
:10D9E0003A5B4449203078253032585D3A2044650E
:10D9F00076696365207479706520307825303258F7
:10DA00002E0D0A005B444D5D3A20446576696365DE
:10DA100020416464722030782530325820307825D7
:10DA20003032582030782530325820307825303246
:10DA30005820307825303258203078253032582E12
:10DA40000D0A00005B444D5D3A20416C6C6F6361D0
:10DA50007465642064657669636520696E737461BA
:10DA60006E6365203078253032580D0A00000000C2
:10DA7000F3B506468279417983B000796B4607C3D6
:10DA80000527F378B2787178174802F0DFF800259F
:10DA900018202946414315480C18227C294614A019
:10DAA00002F0D4F8207DA27D617D6B4607C3E37C44
:10DAB000A27C617C18A002F0C9F820461030072231
:10DAC0003146FDF781FB002805D06D1C072DDFD303
:10DAD000384605B0F0BD29461FA002F0B7F80498FB
:10DAE00000270560F4E7000078170200C02200203C
:10DAF0005B444D5D3A5B4449203078253032585DB7
:10DB00003A204465766963652074797065203078C1
:10DB1000253032582E0D0A005B444D5D3A20446595
:10DB2000766963652041646472203078253032580C
:10DB30002030782530325820307825303258203047
:10DB400078253032582030782530325820307825EA
:10DB50003032582E0D0A00005B444D5D3A20466F6E
:10DB6000756E642064657669636520617420696EF2
:10DB70007374616E6365203078253032580D0A0069
:10DB8000FEB50646087814460D46152875D009DC02
:10DB90004F4C11280DD012283CD0132854D01428F3
:10DBA00064D165E0212878D022287FD023285DD158
:10DBB00085E048A002F04AF868686F468179037AE8
:10DBC000C2790EC743790279C1784A4802F03EF81B
:10DBD0000720FFF7B1F8002801D0FEF77DFB686849
:10DBE00004220088E0803A4831461430FDF7C8FA34
:10DBF0003748143001F0FEF8002801D0FEF76CFB26
:10DC00002078401C0006000E207001D102F092FF27
:10DC100039A016E040A002F019F87C214748FDF732
:10DC2000C8FA0020FFF788F8002801D0FEF754FB5F
:10DC30002078012801D102F07DFF2078401E20705D
:10DC40003FA002F003F811E0717846A001F0FEFF5A
:10DC50001F48143001F0CEF8002801D0FEF73CFB3D
:10DC6000717800E009E04AA001F0F0FF0020FEBD5D
:10DC700052A001F0EBFF5CA0E3E766A001F0E6FF35
:10DC8000686801882D48FEF7C3FE002801D0FEF722
:10DC900023FB69A0D5E700E008E070A001F0D6FF03
:10DCA000200001D0FEF718FB75A0CAE77FA001F0A5
:10DCB000CDFF200001D0FEF70FFB87A0C1E791A0A8
:10DCC00001F0C4FF200001D0FEF706FB98A0B8E7E2
:10DCD000801D00205B4150504C5D3A203E3E204468
:10DCE0004D5F4556545F434F4E4E454354494F4E4A
:10DCF0000D0A0000E41402005B4150504C5D3A20D4
:10DD00003C3C20444D5F4556545F434F4E4E454387
:10DD100054494F4E0D0A00005B4150504C5D3A2073
:10DD20003E3E20444D5F4556545F444953434F4E59
:10DD30004E454354494F4E0D0A000000E81F002095
:10DD40005B4150504C5D3A203C3C20444D5F455671
:10DD5000545F444953434F4E4E454354494F4E0D33
:10DD60000A0000005B4150504C5D3A5B3078253032
:10DD700032585D203E3E20444D5F4556545F53452A
:10DD80004355524954595F53455455500D0A0000AC
:10DD90005B4150504C5D3A5B3078253032585D2005
:10DDA0003C3C20444D5F4556545F534543555249D2
:10DDB00054595F53455455500D0A00005B41505073
:10DDC0004C5D3A203E3E20444D5F4556545F5345DE
:10DDD0004355524954595F53455455505F434F4D35
:10DDE000504C4554450D0A005B4150504C5D3A2063
:10DDF0003C3C20444D5F4556545F53454355524982
:10DE000054595F53455455505F434F4D504C455402
:10DE1000450D0A005B4150504C5D3A203E3E204487
:10DE20004D5F4C494E4B5F534543555245445F4906
:10DE30004E440D0A000000005B4150504C5D3A20FA
:10DE40003C3C20444D5F4C494E4B5F53454355523B
:10DE500045445F494E440D0A000000005B415050AC
:10DE60004C5D3A203E3E20444D5F4556545F4C4940
:10DE70004E4B5F534543555245440D0A0000000088
:10DE80005B4150504C5D3A203C3C20444D5F455630
:10DE9000545F4445564943455F434F4E544558549B
:10DEA0005F4C4F414445440D0A0000005B41505017
:10DEB0004C5D3A203E3E20444D5F4556545F4445FC
:10DEC000564943455F434F4E544558545F53544F52
:10DED0005245440D0A0000005B4150504C5D3A2011
:10DEE0003C3C20444D5F4556545F444556494345AC
:10DEF0005F434F4E544558545F53544F5245440D61
:10DF00000A0000005B4150504C5D3A203E3E2044E8
:10DF10004D5F4556545F4445564943455F434F4E18
:10DF2000544558545F44454C455445440D0A00003F
:10DF30005B4150504C5D3A203C3C20444D5F45567F
:10DF4000545F4445564943455F434F4E54455854EA
:10DF50005F44454C455445440D0A00001FB56946D1
:10DF6000087302F0E1FB002801D0FEF7B5F903A821
:10DF700000F054FC002801D0FEF7AEF901A80521FD
:10DF80000130FDF716F910480222694600900A7127
:10DF90004879012318431043E3210840DF210C3066
:10DFA000084069464871072088711020C871087AB6
:10DFB000184310430872054800F0BAFE002801D04B
:10DFC000FEF78AF91FBD000081DB0100841D0020DF
:10DFD000F3B504466030007E3A214843071981B00A
:10DFE000384602F02FFD060023D0124D6868022843
:10DFF0001FD24034A18E44220F4C50430319598044
:10E000000299002907D0002121543A223946181DCF
:10E01000FDF7B6F801E0022121546868442141432C
:10E020000919401C0E646860A968884201D102F099
:10E03000BDFAFEBDBC1D00207C210020F8B50446C1
:10E0400060300D46007E3A214843001902F0FAFC88
:10E05000010016D00B484268022A12D240344423F1
:10E06000A68E5343084C1F461B195E800126E655B9
:10E070005D60521C196442608068824201D102F0E6
:10E0800095FAF8BDBC1D00207C210020F0B50546A6
:10E09000F4480027007895B0002865D0F24E30682B
:10E0A000002861D002A800F0ABFB002801D0FEF7E9
:10E0B00013F900201490281D04902A2069468882B4
:10E0C000FF208872002008720C90E74C28880C3CD6
:10E0D00010280ED0A8880CAA0221FFF797F9002873
:10E0E00007D10C980C2141430919CA7A69468A72F2
:10E0F0004872288817287DD038DC102846D011288F
:10E1000079D0132830D1D9A001F0A0FDA879C0079B
:10E11000C00F0090687A4107CB0F8107CA0FC10773
:10E12000C90FDDA001F092FD00200C99CE4B1C22FE
:10E130004A43343B0B90D21806920C22514309906B
:10E140000A900919C97A182251431A46A83A89181F
:10E15000079108900022A88806AB11467FDF0100D6
:10E160007ED0D7A001F072FD15B0F0BD182878D090
:10E170001C2877D05228F7D1E1A001F067FDB07AD2
:10E180008100EA48415802A88847EDE70CA8FFF74C
:10E19000D1F80028E8D11120694608730C9848721C
:10E1A0000C225043A98800190181022181720722A3
:10E1B000A91DFCF7E5FF0FA9A81DFFF759FC0028D2
:10E1C0001CD10C990C22514309190F98C8728A7AF4
:10E1D00008231A438A726946887281B2A1480DAA3F
:10E1E000083002F00DFA002809D00346D0480F9AF3
:10E1F0000C9901E078E03FE001F028FD0FE11821E3
:10E2000001911C200C99984D00904843343D4319CE
:10E21000C8480E9A01F01AFD1C210C980A46484382
:10E22000401918230DA902F0A5FA002804D00246CF
:10E23000C1A00C9901F00AFD342000900C998A4A83
:10E240000C204843183A82180C23CA4801F0FEFCFF
:10E25000B07AB649800010390A5802A90DA802E028
:10E2600039E0AFE0EDE190470028C7D00246C2A0F8
:10E270000C9901F0EBFCD2E0A979CFA001F0E6FC0B
:10E280000C980C2148430119887AFD2210408872AD
:10E29000010706D5C0090DD0002102A8FFF73AFA00
:10E2A00008E06846807AFF2804D002F047F9FF2092
:10E2B000694688720C980C2148430019817A4907F5
:10E2C00003D5717A0127B94371721021817212202E
:10E2D00069460873A3E00C980C2148430019817A21
:10E2E0000422114381723FE7A979BCA001F0AEFC82
:10E2F000707A0C214008400070720C98FB22484351
:10E300000019817A0127114081721420694608732F
:10E31000A879002801D0149081E00621A81DFEF7FD
:10E3200027F90C981C2148434F49343940181C21C7
:10E33000FEF71EF9E879400771D56846827AFF2A10
:10E340006DD00C980C21844648430019817A08232B
:10E3500019438172A97A890709D5114618235943AF
:10E36000414BDC3BC918CB7D5B085B00CB75C07AA9
:10E37000FF2854D06146A5A001F068FC0C980C2140
:10E380004843215C022918D001196846807A182276
:10E39000354D5043DC3D401907221030FCF7F0FEAC
:10E3A0006846807A182148434019C17DFD221140FA
:10E3B000C17507211030FEF7DBF8012102A8FFF735
:10E3C000A9F92CE0A87901070209090F994801F081
:10E3D0003DFCA879010901292BD10007000F012874
:10E3E00027D10C980C2148430119897A090720D5B7
:10E3F0001D49183940180621001DFCF7DAFE1620C9
:10E40000694608730C980C2148430119887A6022E8
:10E4100010438872707A012702210843707203A9A1
:10E4200002A8149AFDF764FF6846007B122817D0F3
:10E430001DE10C980C2148430019817A8022114378
:10E440008172152069460873B07A810037484158B7
:10E4500002A88847002804D06846827A417AEBE017
:10E46000F4E0ECE0D41D00209C2300205B444D5DD3
:10E470003A203E3E20424C455F4741505F4556544E
:10E480005F5345435F504152414D535F5245515593
:10E490004553540D0A0000005B444D5D3A2030782E
:10E4A000253032582C203078253032582C203078C6
:10E4B000253032582C203078253032580D0A000093
:10E4C0005B444D5D3A2053656375726974792070C1
:10E4D0006172616D65746572207265706C7920720D
:10E4E000657175657374206661696C65642C207252
:10E4F0006561736F6E203078253038582E0D0A0014
:10E500005B444D5D3A203E3E20424C455F474154BE
:10E5100054535F4556545F5359535F415454525FAF
:10E520004D495353494E470D0A0000006014020044
:10E53000C0170200941802005B444D5D3A5B253021
:10E5400032585D3A204661696C656420746F206CB6
:10E550006F616420426F6E6420696E666F726D61D8
:10E5600074696F6E2C20726561736F6E2025303870
:10E57000580D0A00F01802005B444D5D3A5B2530EF
:10E5800032585D3A204661696C656420746F206C76
:10E590006F6164207365727669636520696E666F6A
:10E5A000726D6174696F6E2C20726561736F6E207D
:10E5B000253038580D0A00005B444D5D3A2044690F
:10E5C00073636F6E6E65637420526561736F6E2046
:10E5D0003078253034580D0A000000005B444D5D52
:10E5E0003A203E3E20424C455F4741505F455654DD
:10E5F0005F415554485F5354415455532C20737414
:10E600006174757320253038580D0A005B444D5DE8
:10E610003A5B4349203078253032585D3A5B4449B3
:10E62000203078253032585D3A20426F6E64656440
:10E63000210D0A00181A020024A001F007FB002097
:10E6400069E632A001F002FB132041E638A00C99E4
:10E6500001F0FCFA0C990C2048430019807A01283B
:10E6600005D03FA001F0F2FA0C98FEF7E7FE002F6C
:10E6700000D179E5707A8007FBD544A001F0E6FA75
:10E6800006AA20214748FEF7C1FE002807D046A071
:10E6900001F0DCFA707AFD210840707264E5002018
:10E6A00069460871069848710C2148430019C07AE0
:10E6B0006946887101A801F0D7F8694603468A794E
:10E6C00049793FA001F0C2FA4EE500005B444D5D80
:10E6D0003A5B4349203078253032585D3A5B4449F3
:10E6E000203078253032585D3A204661696C656487
:10E6F00020746F206170706C792073657276696325
:10E700006520636F6E746578740D0A005B444D5D1F
:10E710003A203E3E20424C455F4741505F455654AB
:10E720005F5345435F524551554553540D0A000010
:10E730005B444D5D3A5B4349203078253032585D6B
:10E740003A2046726565696E6720636F6E6E656319
:10E7500074696F6E20696E7374616E63650D0A0073
:10E760005B444D5D3A5B253032585D3A2046726518
:10E77000656420636F6E6E656374696F6E20696E89
:10E780007374616E63652E0D0A0000005B444D5D7D
:10E790003A51756575656420726571756573740DA0
:10E7A0000A000000FFFF00005B444D5D3A4E6F74AD
:10E7B00068696E672070656E64696E67210D0A0076
:10E7C0005B444D5D3A5B4349203078253032585DDB
:10E7D0003A5B4449203078253032585D3A20536501
:10E7E00063757269747920726571756573742072CE
:10E7F0006573756C74203078253038580D0A000028
:10E80000002806D0FF21017041708170C170002086
:10E8100070470148704700000E800000F0B50546C3
:10E8200087B046A001F012FA002D2FD0002148A099
:10E8300001F00CFA002753483C4607604772877284
:10E840002046FEF7FBFD4F48783804664466846630
:10E850000024204601F072FE641C072CF9D35C21D1
:10E86000684601820721418247480390474903A82F
:10E8700001F0D4FF04000BD0014645A001F0E6F9F9
:10E8800053A001F0E3F9204607B0F0BD5548FBE77F
:10E890003E48012108380170287800280CD06946CC
:10E8A000088A498A484381B2384801F0D3FE0446B9
:10E8B0004DA001F0CBF9E3E73448416859A001F0DD
:10E8C000C5F90026B1B205AA304801F099FE04004E
:10E8D00003D0024631465B4815E031465AA0069AFD
:10E8E00001F0B4F918203146414326480023DC38B2
:10E8F00008180546182205A901F03CFF040008D0BD
:10E90000024631465A4801F0A1F9204808380770FC
:10E91000B6E72A7C314657A001F098F9287DAA7DF8
:10E92000697D6B4607C3EB7CAA7C697C5BA001F028
:10E930008DF9761C072EC5D3A2E700005B444D5D20
:10E940003A203E3E20646D5F696E69742E0D0A00A8
:10E950005B444D5D3A20496E697469616C697A69FE
:10E960006E67204170706C69636174696F6E2049D5
:10E970006E7374616E6365203078253038582E0DC3
:10E980000A0000009C230020DDEA0100DC1D0020BD
:10E990005B444D5D3A204661696C656420746F206C
:10E9A000726567697374657220776974682073741F
:10E9B0006F72616765206D6F64756C652C20726580
:10E9C00061736F6E203078253038582E0D0A0000A4
:10E9D0005B444D5D3A203C3C20646D5F696E697418
:10E9E0002E0D0A000E8000005B444D5D3A205375E9
:10E9F000636365737366756C6C7920726571756598
:10EA00007374656420636C656172206F6620706545
:10EA10007273697374656E7420646174612E0D0A7B
:10EA2000000000005B444D5D3A2053746F726167D3
:10EA3000652068616E646C65203078253038582E0A
:10EA40000D0A00000C1802005B444D5D3A5B307803
:10EA5000253032585D3A20426C6F636B2068616EDE
:10EA6000646C65203078253038582E0D0A0000007F
:10EA7000501802005B444D5D3A5B444920307825D4
:10EA80003032585D3A204465766963652074797048
:10EA900065203078253032582E0D0A005B444D5DDC
:10EAA0003A20446576696365204164647220307859
:10EAB00025303258203078253032582030782530B3
:10EAC000325820307825303258203078253032586E
:10EAD000203078253032582E0D0A0000FFB56D48E1
:10EAE00091B000681A9F1E4600287DD05C2F7BD80D
:10EAF00001A8FFF785FE002801D0FDF7EDFB0024FB
:10EB0000684604710473254607970896A9B209AAB6
:10EB1000614801F075FD002806D1082209A9119865
:10EB2000FCF752FB002819D06D1C072DEED3684668
:10EB300080790090FF2857D0129806AD032810D096
:10EB400054481821DC38301AFCF7F0FA012707285E
:10EB50001ED20495139800280BD012E068468571E8
:10EB6000E5E75C2F03D04020694608738CE0202045
:10EB7000FAE7009938468840474908394968084209
:10EB800032D0009802F00AFC2020694608736AE03F
:10EB900040481C213438301AFCF7C8FA002824D029
:10EBA0003C480C211838301AFCF7C0FA00283AD03B
:10EBB00069464A7939A0009901F048F84020694631
:10EBC0000873414886425FD08879324A8100F83A1A
:10EBD0005158B14256D11146EC310495C97A884258
:10EBE00041D1684644713EE04CE068464279817903
:10EBF00036A001F02BF8202168460495017344717A
:10EC000024480E940C300F9040380B906846807961
:10EC1000182148431F49DC3940180C900BA8089074
:10EC2000182007901FE06846427934A0009901F04F
:10EC30000DF83021684601734471C77115482246AA
:10EC40000C38807A80070ED468468179374800F006
:10EC5000FDFF684640790C2148430E491839401899
:10EC6000046044608460129869460228087B0ED0D4
:10EC70000221084369460873049503A901A8139A61
:10EC8000FDF736FB15B0F0BD087B0321F1E73843F3
:10EC9000F1E700009C230020DC1D00205B444D5D5B
:10ECA0003A5B3078253032585D3A5B307825303227
:10ECB000585D3A2041707020636F6E7465787420DF
:10ECC0004576656E740D0A003C1402005B444D5D90
:10ECD0003A5B3078253032585D3A5B3078253032F7
:10ECE000585D3A20426F6E6420636F6E746578746D
:10ECF000204576656E740D0A000000005B444D5D92
:10ED00003A5B3078253032585D3A5B3078253032C6
:10ED1000585D3A205365727669636520636F6E743F
:10ED2000657874204576656E740D0A003C19020002
:10ED300070B5064616480C460078002815D01548D0
:10ED4000002E11D0002C0FD0216800290CD012A069
:10ED500000F07CFF164D2868002809D00D4C0A3CB5
:10ED600014A000F073FF204670BD0A48801F70BDDC
:10ED700016A000F06BFF206828600522611D281D89
:10ED8000FCF7FEF92079A872002030700446E7E70E
:10ED9000D41D00200E8000005B444D5D3A203E3EB5
:10EDA00020646D5F72656769737465722E0D0A0069
:10EDB0009C2300205B444D5D3A203C3C20646D5F09
:10EDC00072656769737465722E0D0A005B444D5D50
:10EDD0003A204170706C69636174696F6E20496E8E
:10EDE0007374616E636520616C6C6F6361746564DC
:10EDF0002E0D0A00F8B504463648374E0078002834
:10EE000010D0002C03D0207800280BD102E032482B
:10EE1000801DF8BD314F3868002803D06078002885
:10EE200015D101E03046F8BD2C4D0C3DA87A0128E3
:10EE30000DD02BA000F00AFF61780C204843401948
:10EE4000827A920741D5A278FF2A06D102E02248B1
:10EE50000830F8BDC27AFF2A0BD0C27AA2701C22F9
:10EE600051431E4A0089343A8A181146123181DF13
:10EE70002AE001466846FEF76FFD060025D161785D
:10EE80000C226846514300784919C872A070207856
:10EE90005043C019407AC00713D01AA000F0D6FE24
:10EEA00060780C2148434019817A202211438172F5
:10EEB00020780C214843C019417A02221143417243
:10EEC00003E0204600F0D0FC0646314613A000F0D7
:10EED000BDFEA7E7D41D0020088000009C23002071
:10EEE0005B444D5D3A203E3E20646D5F7365637503
:10EEF000726974795F73657475705F7265710D0AFC
:10EF0000000000005B444D5D3A204D61726B65640A
:10EF10002070656E64696E670D0A00005B444D5D8C
:10EF20003A203C3C20646D5F736563757269747947
:10EF30005F73657475705F7265712C203078253051
:10EF400038580D0A00000000F8B50C462C492D4A2F
:10EF5000097800292FD0911D00280BD0002C09D052
:10EF60002368002B06D0A368002B03D0007800286C
:10EF700021D101E00846F8BD2348006800281AD0D6
:10EF800022A000F063FE00221F4B114610460C3BEE
:10EF9000DD7A854202D19D7AAD0723D4257B8D424F
:10EFA0000FD9182506466E43174DDC3D7519EE7DC9
:10EFB000F60702D005E01046F8BD8F00A668491C90
:10EFC000F551257995420DD9182506466E430E4D0B
:10EFD000DC3D7519EE7DB60704D497001035266820
:10EFE000521CF551401C0728D2D3227121730F48BF
:10EFF00000F02CFE0EA000F029FE0020F8BD00005D
:10F00000D41D0020088000009C2300205B444D5D3F
:10F010003A203E3E20646D5F77686974656C697361
:10F02000745F6372656174650D0A0000CC1902009B
:10F030005B444D5D3A203C3C20646D5F77686974A9
:10F04000656C6973745F6372656174650D0A0000B5
:10F0500010B50E4900234A788C78A24212D0521C77
:10F06000D2B24A70022A00D14B704A78074B920004
:10F0700018339A580260086910180002000A0861E3
:10F08000012010BD0360002010BD0000101E0020F4
:10F09000826883881A4003689A5C0A708168491CF8
:10F0A00081607047C26883881A4003689954C168B8
:10F0B000491CC1607047000010B5002803D011281A
:10F0C00002D0FDF77FF910BD0248082241681143C4
:10F0D000416010BDEC1D002010B51C4C217820466D
:10F0E0004068012906D0022929D0032912D100073E
:10F0F00017D513E0000711D41548142201785143A5
:10F100000818C188A28B891A0904090CC18002D091
:10F1100001F086FE10BDFEF79BF810BD00F02EFE3C
:10F1200010BD6069401C606100F06EFC002803D0D7
:10F13000207801F065FD10BDFEF726F810BD60785F
:10F14000044980000858804710BD0000EC1D0020D5
:10F1500044240020C414020010B528DFFFF7ACFFE0
:10F1600010BD10B529DFFFF7A7FF10BD10B504468D
:10F17000C0B2FDF767FA204610BD000010B502A02E
:10F1800000F064FD002010BD5B444D5D3A202D2D44
:10F190003E2067617474635F636F6E746578745F3B
:10F1A0006170706C790D0A0010B502A000F04EFD80
:10F1B000002010BD5B444D5D3A202D2D3E2067613F
:10F1C0007474635F636F6E746578745F6C6F616491
:10F1D0000D0A000010B502A000F038FD002010BD9F
:10F1E0005B444D5D3A202D2D3E2067617474635F52
:10F1F000636F6E746578745F73746F72650D0A0067
:10F20000F8B50446002637461CA000F01FFD234A2F
:10F2100060780C214143154653580C3549198A7AB8
:10F2200001461FA000F012FD60780C214843691AC6
:10F230000958002910D04019807AC1090CD0400625
:10F240000AD423A000F002FD61780C204143281A63
:10F250000E18405A361D87B260780C214843401979
:10F26000008903233A463146A9DF002804D001462D
:10F270001FA000F0EBFC2C48F8BD00005B444D5D86
:10F280003A202D2D3E2067617474735F636F6E7436
:10F290006578745F6170706C790D0A0084230020BA
:10F2A0005B444D5D3A5B4349203078253032585DF0
:10F2B0003A205374617465203078253032582C2000
:10F2C00053697A65203078253038580D0A000000DF
:10F2D0005B444D5D3A2053657474696E67207374A6
:10F2E0006F72656420636F6E746578742E0D0A000A
:10F2F0005B444D5D3A204661696C656420746F2003
:10F300007365742073797374656D206174747269A8
:10F3100062757465732C20726561736F6E2030782E
:10F32000253038582E0D0A0041800000F8B50C46F3
:10F3300007468A78497815A000F088FC60780C218F
:10F340004843204E0A4680193423394601F012FA08
:10F350006178050005D002461BA000F077FC284626
:10F36000F8BD0C204843335826487A6800F06EFCFC
:10F3700060780C2148438019FDF7FAF860780C2179
:10F3800048433158491CEAD13150E8E75B444D5DB0
:10F390003A5B4349203078253032585D3A5B444926
:10F3A000203078253032585D3A202D2D3E2067617F
:10F3B0007474735F636F6E746578745F6C6F61648F
:10F3C0000D0A0000842300205B444D5D3A5B25302C
:10F3D00032585D3A204661696C656420746F206C18
:10F3E0006F6164205365727669636520636F6E7424
:10F3F0006578742C20726561736F6E2025303858E3
:10F400000D0A00005C1A0200FEB50C4607460620F5
:10F410006946088138A000F019FC60780C21484347
:10F420003D4E02AA8019008903236946AADF0028FD
:10F430005FD160780C214843751A401969460A89E2
:10F44000001DFBF7C1FE00280BD060780C2148435B
:10F450002858A17800281BD030A000F0F7FB3C4EC4
:10F460001AE0A1783BA000F0F1FB61780C20484342
:10F470008019807A80073CD445A000F0E7FB6078D3
:10F480000C2148434019002101604160816030E057
:10F490004DA000F0DBFB574E6846028960780C21D6
:10F4A00048432A506078484340196946001DFBF7DD
:10F4B00067FE60780C2148434019FDF759F86078E1
:10F4C0000C2148432A58A1784BA000F0BFFB60787C
:10F4D0000C214843411934230C223846B04702001E
:10F4E00004D0A1784EA000F0B1FB02E05CA000F0D7
:10F4F000ADFB0020FEBD00005B444D5D3A202D2D8C
:10F500003E2067617474735F636F6E746578745FB7
:10F5100073746F72650D0A00902300205B444D5D8B
:10F520003A5B3078253032585D3A2055706461740A
:10F53000696E672073746F72656420736572766993
:10F54000636520636F6E746578740D0A00000000B7
:10F55000B50902005B444D5D3A5B30782530325886
:10F560005D3A204E6F206368616E676520696E208A
:10F57000474154545320436F6E7465787420696E0C
:10F58000666F726D6174696F6E2E0D0A0000000067
:10F590005B444D5D3A5B3078253032585D3A2052FD
:10F5A0006573657474696E672047415454532066CF
:10F5B0006F722061637469766520696E7374616E21
:10F5C00063652E0D0A0000005B444D5D3A5B3078A8
:10F5D000253032585D3A2053746F72696E6720731C
:10F5E00065727669636520636F6E746578740D0A61
:10F5F00000000000D90802005B444D5D3A5B3078A2
:10F60000253032585D3A20474154545320446174A8
:10F61000612073697A65203078253038580D0A00EA
:10F620005B444D5D3A5B3078253032585D3A466137
:10F63000696C656420746F2073746F7265207365E4
:10F64000727669636520636F6E746578742C2072BE
:10F650006561736F6E203078253038580D0A0000D0
:10F660005B444D5D3A205365727669636520636F34
:10F670006E74657874207375636365737366756CF7
:10F680006C792073746F7265642E0D0A000000009F
:10F6900010B5044605A000F0D9FA2046FFF7B0FDEA
:10F6A000002802D12046FFF769FD10BD5B444D5D87
:10F6B0003A202D2D3E206761747473635F636F6E13
:10F6C000746578745F6170706C790D0A00000000D9
:10F6D00070B505460C4607A000F0B8FA214628464A
:10F6E000FFF724FE002803D121462846FFF75CFDE2
:10F6F00070BD00005B444D5D3A202D2D3E206761BA
:10F70000747473635F636F6E746578745F6C6F613C
:10F71000640D0A0070B505460C4607A000F096FA85
:10F7200021462846FFF770FE002803D121462846CF
:10F73000FFF750FD70BD00005B444D5D3A202D2D5C
:10F740003E206761747473635F636F6E7465787471
:10F750005F73746F72650D0A0000000070B51B4C7A
:10F76000207900072ED41A481422017851430D182D
:10F770002E6900F0D3FF0146E8882A89761E80189A
:10F780008019FBF7D3FC21690025002909D06169A4
:10F79000814206D1E5606068012108436060002075
:10F7A0000AE000F031F9002802D00220E56003E011
:10F7B0002069002803D0032001F07AFB70BDFDF71B
:10F7C000E3FC70BD01F068FB70BD0000EC1D002083
:10F7D0004424002010B50C46097801290AD00229DA
:10F7E00007D1618808A000F031FA618810A000F00C
:10F7F0002DFA10BDFDF760F9002801D0FCF76CFD73
:10F8000010A000F023FA10BD5B4150504C5D3A202F
:10F810004852204D6561737572656D656E74207216
:10F8200065636569766564202564200D0A00000023
:10F8300048656172742052617465203D2025640D15
:10F840000A0000004865617274207261746520735B
:10F8500065727669636520646973636F7665726546
:10F8600064200D0A0000000070B5044619A000F0E5
:10F87000EDF920780C214843214E05218019001D07
:10F88000FCF776FE20780C214843811960780C2221
:10F890005043B51A40190089091D7EDF010016D1B9
:10F8A00020780C2250438019427A01231A43427275
:10F8B00060780C2250434219907A042318439072C6
:10F8C00062780C235A435219DF231840907208467D
:10F8D00070BD00005B444D5D3A20496E69746961FA
:10F8E00074696E672061757468656E7469636174AC
:10F8F000696F6E20726571756573740D0A00000082
:10F900009C230020F8B51C4C2078002833D02069B7
:10F91000002807D00026E068002805D00025002E2A
:10F9200004D011E00126F6E70125F8E7684652DF2A
:10F93000052804D0002804D0FCF7CEFC04E0012602
:10F9400002E0216900988847002D10D1608869463F
:10F950000880A06861DF052804D0002804D0FCF7E7
:10F96000BBFC04E0012502E0E168A0688847002EA6
:10F97000DCD0002DD3D0F8BD3C1E002030B5098965
:10F98000002A05D0D088491C814212D1002030BD08
:10F9900002466032147E3A256C4324182489A14221
:10F9A000F4D0491C1980117E3A225143081800896D
:10F9B00002E01980D088401E5880012030BD000030
:10F9C0001048018CC9B2012917D1818C090714D1C3
:10F9D000018D09060A0F03D1828D1206120F0ED077
:10F9E000090F012903D1828D1206120F07D00329B6
:10F9F00003D1808D0006000F01D000207047012048
:10FA000070470000C00F00F070B50E481422017856
:10FA100051430C18256900F081FE0146E0882289D7
:10FA20006D1E80184019FBF781FB07494A69824225
:10FA300006D3824202D10869002801D0002070BD9F
:10FA4000012070BD44240020EC1D0020800701D05F
:10FA5000002070470120704710B50448017AC9079B
:10FA600002D00078FDF79CF910BD0000981D002021
:10FA7000F8B52C49C8680A690C780F7989688646F8
:10FA8000944600913EE00099E20055182A7836E04D
:10FA9000182353436968521CC918AB78D2B29342F9
:10FAA00000D100220B78022B02D0032B27D123E0B8
:10FAB0004E680346014603E0B14204D00B46C969D3
:10FAC00000291CD0F8E7002919D08B4208D1C06961
:10FAD000002805D1144F0126BE600026B446012738
:10FAE0000E68C969D961002909D00B689B190B60A0
:10FAF00005E00174C06900E000210028F9D16978AF
:10FB00009142C5D12146641EE4B20029BBD105490A
:10FB100062460A61C8600F71704501D00120F8BDCE
:10FB20000020F8BD101E002000100140F8B504466A
:10FB300031480026C168009107784EE02E48F90050
:10FB400080680D1843E0002C02D02046E4691FE0D5
:10FB50002878182141436A68401CC0B251182870A7
:10FB6000AA78904200D12E700A784868012A30D1D4
:10FB7000027C002A2DD18A684260CA6882600A69C4
:10FB8000C260496981611C490979002900D0466039
:10FB9000194943680A699C46991A0902174B090AD0
:10FBA000994202D28268891807E06146511A090217
:10FBB0008268090A8A4202D9511A016000E006608F
:10FBC0004660012186600174C66101F0E7F9002CEE
:10FBD000B9D1287869788842BAD138467F1EFFB2F9
:10FBE0000028ABD10448C1680098814201D00120AF
:10FBF000F8BD0020F8BD0000101E0020FFFF7F00B0
:10FC000030B50E4C87B02078002802D0002007B015
:10FC100030BD0B4A04AB07CA07C308480125401C86
:10FC20000090084802902802039001950323064A99
:10FC3000694604A8FCF7B6FC2570E8E7301E0020F2
:10FC4000D81402001C250020B11102000FB410B519
:10FC500003A90298FBF76AFE10BC08BC04B0184761
:10FC60001CB534490320C86001203349C004C86072
:10FC70003248002101613248016001218205116092
:10FC800001680029FCD000232E4A03211846FCF706
:10FC9000BFFB002801D0FCF71FFB2B4A2B49032098
:10FCA000FDF758F8002801D0FCF716FB01A9002049
:10FCB000FCF794FF002801D0FCF70EFB68460079A2
:10FCC000022834D0002069460870FFF799FF002809
:10FCD00001D0FCF701FB1EA0FFF7B8FFFCF742FFC5
:10FCE00068460078FEF73AF9FCF738FE002801D0A4
:10FCF000FCF7F2FA1E48009069461E48FCF7E8FE41
:10FD0000002801D0FCF7E8FA1B4800901948694622
:10FD10000C30FCF7A1FD002801D0FCF7DDFA00F063
:10FD200009FF48DF0028FCD0FCF7D6FAF9E70120EC
:10FD3000C9E70000400700500005005040050040A2
:10FD400000010040B01E0020C5CC0100CD0C000019
:10FD50004865617274207261746520636F6C6C65B4
:10FD600063746F72206578616D706C650D0A0000B8
:10FD7000D5F70100642000206DC6010010B50448CD
:10FD80000822416891434160007800F039FF10BDBE
:10FD9000EC1D002010B5044604A0FFF757FF617862
:10FDA0000CA0FFF753FF002010BD00005B444D5D29
:10FDB0003A202D2D3E206E6F5F7365727669636504
:10FDC0005F636F6E746578745F6170706C790D0A33
:10FDD000000000005B444D5D3A5B434920307825CC
:10FDE0003032585D3A204E6F2053657276696365F4
:10FDF00020636F6E746578740D0A000010B502A060
:10FE0000FFF724FF002010BD5B444D5D3A202D2DEF
:10FE10003E206E6F5F736572766963655F636F6EB8
:10FE2000746578745F6C6F61640D0A0010B502A090
:10FE3000FFF70CFF002010BD5B444D5D3A202D2DD7
:10FE40003E206E6F5F736572766963655F636F6E88
:10FE5000746578745F73746F72650D0A000000003A
:10FE60008207D30EFF229A408907090E10B59940E8
:10FE700000280BDA03071B0F083B9C080C4BA4005F
:10FE8000E318DC6994430C43DC6107E08408094B08
:10FE9000A400E418236893430B432360C106C90EF2
:10FEA00001208840044908600449086010BD000032
:10FEB00000ED00E000E400E080E200E000E100E0AE
:10FEC000F3B52A4C0746E07E81B0002801D0082017
:10FED000FEBD002F00D1264F386800F03AF938787F
:10FEE000012631468140234881600021786800F076
:10FEF00027F9214DB8696862787D397D0843E86645
:10FF000003CFE8606961387B083F01280FD10021E9
:10FF1000B86800F015F9F86800F01BF9387B314635
:10FF2000814014488160F968B868A9602861029826
:10FF300060603969216000280ED0FF230F481D330F
:10FF4000397F0022C250FF234533C2500D4A0C486E
:10FF500050600220FFF784FF042028600020E07535
:10FF60002076A075E676A076FEBD0000282400204D
:10FF700090140200000500500025004000200040C1
:10FF80008000020000230040F8B5104B81245E6819
:10FF90000022A4000E4D002E00D0AC60DF7D002FAB
:10FFA0000BD01A7E002A04D0002E00D06C601120E5
:10FFB000F8BD18610122197604E0D9750024D860D3
:10FFC0005C761C7600F012F8F8BD000028240020B2
:10FFD0000023004010B5044CA07E002803D100F09F
:10FFE0009BFD0120A07610BD28240020F8B5234DEC
:10FFF000A87E104301D100F08FFD6868204C0028D6
:020000040002F8
:1000000005D081201F49800048600020F8BDFF20F6
:10001000453000212150FF212531204600F0BEF857
:100020000546FF210931204600F0B8F80746FF21B8
:100030004531204600F0B2F806463946314329439F
:10004000E9D02846304306D100F03CFD0B48C17D85
:10005000407E8142DFD800210848002DC17501D0C3
:100060000320F8BD002E01D00F20F8BD817E0120B5
:10007000002901D02060C8E76060C6E7282400207E
:10008000002000400023004010B5064A937D002B5D
:1000900001D0112010BD917590600020908200F079
:1000A00003F810BD28240020F8B50026194FFF25BD
:1000B0001D357E510120B86001F054F8164C61687E
:1000C000002910D022E0FF2701372946114800F00F
:1000D00065F8002802D1A08AB842F6D1A08AB842B9
:1000E00001D001F03FF8A08AA17D8842EBD3A18A1C
:1000F000C81FF9380CD0074F2946384600F04EF893
:100100000028F9D00120F8600020A0753046F8BD25
:100110000F26F9E7002000402824002030B55200C7
:100120000A439900039C0A432102049D0A432904BF
:100130000A43024980004018026030BD00070050A9
:100140001CB500220B46009211460192FFF7E6FF14
:100150001CBD1CB5002100910B46012201911146E6
:10016000FFF7DCFF1CBD0000820006481018026883
:1001700003231B049A430260026809040A430260D5
:10018000704700000007005003494018006801282C
:1001900000D0002070470000006000404058002858
:1001A00000D00120704703221202801840680840E6
:1001B00000D0012070470000F0B5041D008885B014
:1001C000192858D01B280AD01D2806D12088A11C28
:1001D00075DF002801D0FCF77FF805B0F0BD2046A0
:1001E0000B300290A07A6946C00888816A4602A94D
:1001F0000220FCF721F8002806D06A4602A9032055
:10020000FCF71AF80028E8D10025224F2DE06800FD
:10021000009A411C515C165C09020E4331461EA037
:10022000FFF714FDBE421FD187DF010002D01EA0E0
:10023000FFF70CFD0020FCF77FFD002801D0FCF744
:100240004BF82348FD22017800251140017001463A
:100250004560204AA01C88DF01001F488570BCD083
:100260001EA0FFF7F3FCB8E76D1C684680884008C5
:10027000A842CCD8B1E7A078022805D00328ACD199
:1002800022A0FFF7E3FCA8E72AA0FFF7DFFC00F0BD
:1002900051FCA2E70D180000095B4150504C5D3A3B
:1002A0002025780D0A0000005B4150504C5D3A203B
:1002B0005363616E2073746F70206661696C65644E
:1002C0002C20726561736F6E2025640D0A0000009A
:1002D0007C2000202A140200801D00205B41505029
:1002E0004C5D3A20436F6E6E656374696F6E205289
:1002F000657175657374204661696C65642C207244
:100300006561736F6E2025640D0A00005B415050DB
:100310004C5D3A20436F6E6E656374696F6E205258
:100320006571756573742074696D6564206F75748B
:100330002E0D0A005B4150504C5D3A205363616EB4
:100340002074696D6564206F75742E0D0A000000BD
:10035000FEB5074604466037387E3A2250430619F8
:10036000488800283AD10831019135790878281851
:10037000042800D9042030710020009014E0009877
:100380000A21484301990A2241180C206843801928
:1003900002900A30891CFAF7F3FE0298002181824C
:1003A0000098401C6D1C00903079A842E7D80C20C2
:1003B0004543A819C188387E3A2250430019008964
:1003C00081420BD23079042808D0F8752046FCF71A
:1003D0003BFE01000ED00020787608E00025FD7578
:1003E00069462046FDF754F9010004D07D76204689
:1003F000FDF724FEFEBD684600780028FAD0742080
:10040000025B31880548FFF721FC01212046FDF7FA
:10041000DFFD204600F05AF8FEBD0000CC150200BA
:10042000F8B50546044660350A46287E3A21484319
:100430000619E87D0C23584380190A30844611467A
:1004400050880831002812D11E4B0A880DE006277B
:1004500047437F18BF889F4206D106225043401869
:1004600041886046418102E0401C8242EFD800276B
:1004700068460770E87D3179401C884203D101202D
:10048000694608700FE0E87569462046FDF700F9F7
:10049000010004D06F762046FDF7D0FDF8BD684618
:1004A00000780028FAD07420025B31880648FFF7F4
:1004B000CDFB01212046FDF78BFD204600F006F81C
:1004C000F8BD00000229000078160200F8B50546C4
:1004D00004466035A87E1649401CC0B2A8768A68DA
:1004E0000021904222D20022EA75287E3A21401C47
:1004F000C0B241430E1928760E49C0004018018849
:10050000318040887080274632714037BA8E0A4861
:10051000FFF79CFBB88E3246012190DF010004D02A
:10052000002068762046FDF789FDF8BD6976F8BDA4
:10053000BC1D00206C2100202816020070B5044666
:1005400001460EA0FFF782FB1820174960434518AB
:10055000284611300621FAF72CFE00262E606E6028
:10056000AE60FF21EE602974E975204600F016FFA9
:100570000D49A0001C390E5070BD00005B444D5D5C
:100580003A20496E697469616C697A696E672050B6
:1005900065657220496E7374616E636520307825DD
:1005A0003038582E0D0A0000C022002070B50024FB
:1005B000074D084E05E0442060438019016C8847D0
:1005C000641CA8688442F6D30020686070BD0000F7
:1005D000BC1D00207C21002007490979490701D46E
:1005E00008207047002804D00449497801600020A1
:1005F00070470E2070470000EC1D002044240020AE
:1006000030B5124B1B795B0701D4082030BD0028A0
:1006100005D0002A03D00468002C10D101E00E2080
:1006200030BD0B4B1D68002D09D04568188941432A
:1006300069185D89454358682818884201D8072001
:1006400030BD14600020516030BD0000EC1D002062
:1006500010250020FEB5054625480E4600794007C6
:1006600001D40820FEBD002D03D02868002834D115
:1006700001E00E20FEBD1F4C216800292DD06089AD
:1006800021894843616841186868814225D9FFF78C
:10069000DDF900280FD06868019029680C225143C9
:1006A0000F1979680091401A39890C46FAF73EFD16
:1006B000002912D101E01020FEBD21463046FAF794
:1006C00035FD002909D1002E07D0788944430198CF
:1006D000811900980019814201D90720FEBD002030
:1006E00002460090334629460320FCF78BFDFEBDF1
:1006F000EC1D00201025002010B507484469601C3F
:1007000006D000F00BF801462046FAF70FFD10BDA9
:1007100001200007406910BD0010001001200007F3
:10072000006980B27047000070B500240F4825466C
:10073000047044702846FCF755FD6D1C0A2DF9D352
:100740000B4D6C80FFF7D8FF861EFFF7E7FF46438F
:100750000648AE60CC306C610460048144812C702A
:10076000AC610420EC616860002070BD442400206E
:10077000EC1D0020FFB5274881B000791F461646C2
:100780000D46400702D4082005B0F0BD002D06D06C
:100790000198002803D02868002815D101E00E2018
:1007A000F2E71D4C206800280ED06189208962681C
:1007B000414389186A68914206D9002E04D0B0429C
:1007C00002D3F119814201D90720DDE70198FFF733
:1007D0003DF900281BD03846FFF738F9002816D01D
:1007E0006868FFF733F9002811D068683246C119EC
:1007F0000198FAF7C5FC009628680C214843245854
:10080000002202212846019BA0470020BCE71020BF
:10081000BAE70000EC1D002010250020F8B52C4D93
:10082000044628790E46400701D40820F8BD002C64
:1008300020D0002E1ED0206800281BD0FFF76EFFAE
:100840000146A088814213D3102811D3E0880028E4
:100850000ED0FFF751FF471EFFF760FF4743E288C6
:10086000A188A8684A431218974201D3890703D088
:100870000720F8BD0E20F8BD6988012926D0316017
:100880000C22144B51437060CA18506020685850B5
:10089000A0881081E0885081FFF740FF0646FFF7EF
:1008A0003DFFA188E288401E514340183146FAF7C7
:1008B00053FC0446FFF732FF0146A868614308185D
:1008C000A8606888401C68800020F8BD0420F8BD3E
:1008D000EC1D002010250020F8B5044620481E46D7
:1008E000007915460F46400701D40820F8BD002FB7
:1008F00005D0002C03D02068002815D101E00E207F
:10090000F8BD1848016800290ED042890189406865
:100910004A4310186268904206D9002D04D0A942BB
:1009200002D3A819884201D90720F8BD3846FFF73D
:100930008DF8002811D03046FFF788F800280CD039
:100940006068FFF783F8002807D02B463A46214617
:1009500001200096FCF756FCF8BD1020F8BD000001
:10096000EC1D00201025002010B511490246087822
:10097000002811D004280FD0022A16D0032A0BD148
:100980000A79120711D48A69521C8A61032A08D095
:10099000022802D000F034F910BD487800F088FA3F
:1009A00010BD0D20FBF70EFD10BDFEF795FB10BD31
:1009B000EC1D0020F8B5044620481E460079154677
:1009C0000F46400701D40820F8BD002F05D0002CA9
:1009D00003D02068002815D101E00E20F8BD18488A
:1009E000016800290ED04289018940684A431018E5
:1009F0006268904206D9002D04D0A94202D3A819FA
:100A0000884201D90720F8BD3846FFF71FF80028B3
:100A100011D03046FFF71AF800280CD06068FFF7B5
:100A200015F8002807D02B463A46214604200096A8
:100A3000FCF7E8FBF8BD1020F8BD0000EC1D00201D
:100A40001025002070B50D4B00210B4A9B680EE06D
:100A5000CC00A518AD788678B54207D1145B05881F
:100A6000AC4203D1C8008018406870BD491C99424F
:100A7000EED3002070BD00006C210020BC1D0020C2
:100A800070B501240B49600408600B494010886070
:100A9000094940398860094D6C602F20FAF71AFB2C
:100AA000AC60074D00242F202C61FAF713FBEC708B
:100AB00070BD000080E100E04013014000100140E3
:100AC000101E002030B50A48FF21C57D0022094CC8
